S0280000566C61644D616E74614166746572416374697665546573744F70656E4C696E652E737265637C
S11300000C942A000C943C000C943C000C943C008E
S11300100C943C000C943C000C943C000C943C006C
S11300200C943C000C943C000C943C000C943C005C
S11300300C943C000C943C000C943C000C943C004C
S11300400C943C000C943C000C943C000C943C003C
S11300500C943C0011241FBECFE5D8E0DEBFCDBF19
S113006020E0A0E6B0E001C01D92A836B207E1F797
S11300700E946D000C94D0000C94000017BAB99A39
S113008018BA089527C0EFE1F3E03197F1F700C003
S11300900000B09B0BC020916600309167002F5F79
S11300A03F4F309367002093660013C02091660091
S11300B030916700409164005091650042175307E6
S11300C020F430936500209364001092670010922E
S11300D0660001970097B9F608950E943E002FEF3D
S11300E081EE94E0215080409040E1F700C0000090
S11300F080E197E20E944200809164009091650043
S11301004497909365008093640041E050E08FE150
S113011093E00197F1F700C00000B09B29C08091E3
S1130120600090916100892BA9F480916200909104
S1130130630001969093630080936200099750F0E6
S11301409FEF27EE83E0915020408040E1F700C00C
S11301500000C19A50936100409360008091660052
S11301609091670001969093670080936600CFCFCB
S11301701092610010926000209166003091670037
S113018080916400909165002817390720F010923F
S11301906300109262001092670010926600B7CF5D
S10701A0F894FFCFFD
S9030000FC
