:100000000C942A000C943C000C943C000C943C0092
:100010000C943C000C943C000C943C000C943C0070
:100020000C943C000C943C000C943C000C943C0060
:100030000C943C000C943C000C943C000C943C0050
:100040000C943C000C943C000C943C000C943C0040
:100050000C943C0011241FBECFE5D8E0DEBFCDBF1D
:1000600020E0A0E6B0E001C01D92AE36B207E1F795
:100070000E94F7000C94E8010C94000017BAB99A9A
:1000800018BA8FE384BB15BA80E881BB12BA089511
:1000900027C0EFE1F3E03197F1F700C00000B09B1B
:1000A0000BC020916C0030916D002F5F3F4F30935B
:1000B0006D0020936C0013C020916C0030916D0096
:1000C00040916A0050916B004217530720F430931F
:1000D0006B0020936A0010926D0010926C000197E3
:1000E0000097B9F60895009741F0EFE9FFE03197E6
:1000F000F1F700C000000197C1F70895AD9A2FEF06
:1001000080E49AE0215080409040E1F700C0000078
:10011000A99A2FEF80E49AE0215080409040E1F7C7
:1001200000C00000979A2FEF80E49AE021508040B1
:100130009040E1F700C00000AD982FEF80E49AE016
:10014000215080409040E1F700C00000A9982FEFB7
:1001500080E49AE0215080409040E1F700C0000028
:1001600097982FEF80E49AE0215080409040E1F78B
:1001700000C00000AD9A2FEF80E49AE0215080404B
:100180009040E1F700C00000A99A2FEF80E49AE0C8
:10019000215080409040E1F700C00000979A2FEF77
:1001A00080E49AE0215080409040E1F700C00000D8
:1001B000AD982FEF80E49AE0215080409040E1F725
:1001C00000C00000A9982FEF80E49AE02150804001
:1001D0009040E1F700C0000097982FEF80E49AE08C
:1001E000215080409040E1F700C0000008950E9437
:1001F0003E002FEF31EE84E0215030408040E1F7A7
:1002000000C000000E947E00AD9A9FEF20E732E020
:10021000915020403040E1F700C0000037C09F9B64
:1002200035C040916000509161004F5F5F4F9A016F
:10023000ABEABAEA0E94D901969587959C01220FF4
:10024000331F820F931F9A01281B390B30936100D3
:10025000209360002130310549F020F02230310533
:1002600049F00BC0A9989798AD9A07C0AD98979898
:10027000A99A03C0AD98A998979A3FEF85EA9EE0A6
:10028000315080409040E1F700C000009E9BC7CFF6
:1002900080916000909161008130910589F018F0A3
:1002A0000297D9F026C080E590E090936300809398
:1002B000620089E090E0909365008093640019C02B
:1002C00088E290E0909363008093620083E090E086
:1002D00090936500809364000CC08EE190E0909351
:1002E00063008093620084E090E0909365008093C7
:1002F0006400AD9AA99A979A80E197E20E9448001B
:1003000080916A0090916B00449790936B0080936A
:100310006A00C1E0D0E08FE193E00197F1F700C0FF
:100320000000B09B2EC08091660090916700892BE1
:10033000D1F48091680090916900019690936900D2
:1003400080936800209164003091650082179307C4
:1003500050F080916200909163000E947300C19AF6
:10036000AD98A9989798D0936700C0936600809144
:100370006C0090916D00019690936D0080936C00DD
:10038000CACF109267001092660020916C003091E5
:100390006D0080916A0090916B002817390720F05A
:1003A000109269001092680010926D0010926C001B
:1003B000B2CFA29FB001B39FC001A39F700D811D5A
:1003C0001124911DB29F700D811D1124911D08955E
:0403D000F894FFCFCF
:00000001FF
