:100000000C942A000C943C000C943C000C943C0092
:100010000C943C000C943C000C943C000C943C0070
:100020000C943C000C943C000C943C000C943C0060
:100030000C943C000C943C000C943C000C943C0050
:100040000C943C000C943C000C943C000C943C0040
:100050000C943C0011241FBECFE5D8E0DEBFCDBF1D
:1000600020E0A0E6B0E001C01D92A436B207E1F79F
:100070000E946D000C94B1000C94000017BAB99A5C
:1000800018BA089527C0EFE1F3E03197F1F700C007
:100090000000B09B0BC020916200309163002F5F85
:1000A0003F4F309363002093620013C020916200A1
:1000B00030916300409160005091610042175307F6
:1000C00020F430936100209360001092630010923E
:1000D000620001970097B9F608950E943E002FEF45
:1000E00081EE94E0215080409040E1F700C0000094
:1000F00080E197E20E94420080916000909161004F
:10010000449790936100809360008FE193E00197A2
:10011000F1F700C00000B09B0AC08091620090918E
:10012000630001969093630080936200EECF20916C
:100130006200309163008091600090916100281707
:10014000390738F0C19A8FEC97E00197F1F700C0BA
:100150000000109263001092620088B3817088BB27
:06016000D4CFF894FFCF9C
:00000001FF
